{
  "_format": "hh-sol-artifact-1",
  "contractName": "TestERC777Recipient",
  "sourceName": "contracts/TestERC777Recipient.sol",
  "abi": [
    {
      "inputs": [],
      "stateMutability": "nonpayable",
      "type": "constructor"
    },
    {
      "anonymous": false,
      "inputs": [
        {
          "indexed": false,
          "internalType": "address",
          "name": "operator",
          "type": "address"
        },
        {
          "indexed": false,
          "internalType": "address",
          "name": "from",
          "type": "address"
        },
        {
          "indexed": false,
          "internalType": "address",
          "name": "to",
          "type": "address"
        },
        {
          "indexed": false,
          "internalType": "uint256",
          "name": "amount",
          "type": "uint256"
        },
        {
          "indexed": false,
          "internalType": "bytes",
          "name": "userData",
          "type": "bytes"
        },
        {
          "indexed": false,
          "internalType": "bytes",
          "name": "operatorData",
          "type": "bytes"
        }
      ],
      "name": "TokensReceived",
      "type": "event"
    },
    {
      "inputs": [
        {
          "internalType": "bytes32",
          "name": "interfaceHash",
          "type": "bytes32"
        },
        {
          "internalType": "address",
          "name": "account",
          "type": "address"
        }
      ],
      "name": "canImplementInterfaceForAddress",
      "outputs": [
        {
          "internalType": "bytes32",
          "name": "",
          "type": "bytes32"
        }
      ],
      "stateMutability": "view",
      "type": "function"
    },
    {
      "inputs": [],
      "name": "lastAmount",
      "outputs": [
        {
          "internalType": "uint256",
          "name": "",
          "type": "uint256"
        }
      ],
      "stateMutability": "view",
      "type": "function"
    },
    {
      "inputs": [],
      "name": "lastFrom",
      "outputs": [
        {
          "internalType": "address",
          "name": "",
          "type": "address"
        }
      ],
      "stateMutability": "view",
      "type": "function"
    },
    {
      "inputs": [],
      "name": "lastOperator",
      "outputs": [
        {
          "internalType": "address",
          "name": "",
          "type": "address"
        }
      ],
      "stateMutability": "view",
      "type": "function"
    },
    {
      "inputs": [],
      "name": "lastOperatorData",
      "outputs": [
        {
          "internalType": "bytes",
          "name": "",
          "type": "bytes"
        }
      ],
      "stateMutability": "view",
      "type": "function"
    },
    {
      "inputs": [],
      "name": "lastUserData",
      "outputs": [
        {
          "internalType": "bytes",
          "name": "",
          "type": "bytes"
        }
      ],
      "stateMutability": "view",
      "type": "function"
    },
    {
      "inputs": [
        {
          "internalType": "address",
          "name": "operator",
          "type": "address"
        },
        {
          "internalType": "address",
          "name": "from",
          "type": "address"
        },
        {
          "internalType": "address",
          "name": "to",
          "type": "address"
        },
        {
          "internalType": "uint256",
          "name": "amount",
          "type": "uint256"
        },
        {
          "internalType": "bytes",
          "name": "userData",
          "type": "bytes"
        },
        {
          "internalType": "bytes",
          "name": "operatorData",
          "type": "bytes"
        }
      ],
      "name": "tokensReceived",
      "outputs": [],
      "stateMutability": "nonpayable",
      "type": "function"
    }
  ],
  "bytecode": "0x608060405234801561001057600080fd5b506040516329965a1d60e01b815230600482018190527fb281fc8c12954d22544db45de3159a39272895b169a852b314f9cc762e44c53b6024830152604482015273a38bbad0a6ad97420f85b7ad0e4b5306ba4f4f19906329965a1d90606401600060405180830381600087803b15801561008a57600080fd5b505af115801561009e573d6000803e3d6000fd5b505050506106ba806100b16000396000f3fe608060405234801561001057600080fd5b506004361061007c5760003560e01c80636ad311521161005b5780636ad31152146100d55780636eb3cd49146100dd5780638044337814610108578063829a86d91461011b57600080fd5b806223de291461008157806311e37ed014610096578063249cb3fa146100b4575b600080fd5b61009461008f366004610378565b610124565b005b61009e610220565b6040516100ab9190610423565b60405180910390f35b6100c76100c2366004610471565b6102ae565b6040519081526020016100ab565b61009e610306565b6001546100f0906001600160a01b031681565b6040516001600160a01b0390911681526020016100ab565b6002546100f0906001600160a01b031681565b6100c760035481565b6001600160a01b03861630146101805760405162461bcd60e51b815260206004820181905260248201527f455243373737526563697069656e743a2077726f6e6720726563697069656e74604482015260640160405180910390fd5b600180546001600160a01b03808b166001600160a01b03199283161790925560028054928a1692909116919091179055600385905560046101c284868361053c565b5060056101d082848361053c565b507fc516411697311e2344b800024721d1011dfc3c7f81c219c10582557cf4633690888888888888888860405161020e989796959493929190610626565b60405180910390a15050505050505050565b6004805461022d906104b3565b80601f0160208091040260200160405190810160405280929190818152602001828054610259906104b3565b80156102a65780601f1061027b576101008083540402835291602001916102a6565b820191906000526020600020905b81548152906001019060200180831161028957829003601f168201915b505050505081565b6000828152602081815260408083206001600160a01b038516845290915281205460ff166102dd5760006102ff565b7fa2ef4600d742022d532d4747cb3547474667d6f13804902513b2ec01c848f4b45b9392505050565b6005805461022d906104b3565b80356001600160a01b038116811461032a57600080fd5b919050565b60008083601f84011261034157600080fd5b50813567ffffffffffffffff81111561035957600080fd5b60208301915083602082850101111561037157600080fd5b9250929050565b60008060008060008060008060c0898b03121561039457600080fd5b61039d89610313565b97506103ab60208a01610313565b96506103b960408a01610313565b955060608901359450608089013567ffffffffffffffff808211156103dd57600080fd5b6103e98c838d0161032f565b909650945060a08b013591508082111561040257600080fd5b5061040f8b828c0161032f565b999c989b5096995094979396929594505050565b600060208083528351808285015260005b8181101561045057858101830151858201604001528201610434565b506000604082860101526040601f19601f8301168501019250505092915050565b6000806040838503121561048457600080fd5b8235915061049460208401610313565b90509250929050565b634e487b7160e01b600052604160045260246000fd5b600181811c908216806104c757607f821691505b6020821081036104e757634e487b7160e01b600052602260045260246000fd5b50919050565b601f82111561053757600081815260208120601f850160051c810160208610156105145750805b601f850160051c820191505b8181101561053357828155600101610520565b5050505b505050565b67ffffffffffffffff8311156105545761055461049d565b6105688361056283546104b3565b836104ed565b6000601f84116001811461059c57600085156105845750838201355b600019600387901b1c1916600186901b1783556105f6565b600083815260209020601f19861690835b828110156105cd57868501358255602094850194600190920191016105ad565b50868210156105ea5760001960f88860031b161c19848701351681555b505060018560011b0183555b5050505050565b81835281816020850137506000828201602090810191909152601f909101601f19169091010190565b6001600160a01b0389811682528881166020830152871660408201526060810186905260c06080820181905260009061066290830186886105fd565b82810360a08401526106758185876105fd565b9b9a505050505050505050505056fea2646970667358221220907bb9b64ec66a64625d1566076cbbcc8fc46c632b82be62d564e33155724a3464736f6c63430008130033",
  "linkReferences": {},
  "deployedLinkReferences": {}
}