{
  "_format": "hh-sol-artifact-1",
  "contractName": "LotteryERC777",
  "sourceName": "contracts/LotteryERC777.sol",
  "abi": [
    {
      "inputs": [
        {
          "internalType": "address",
          "name": "tokenAddress",
          "type": "address"
        }
      ],
      "stateMutability": "nonpayable",
      "type": "constructor"
    },
    {
      "anonymous": false,
      "inputs": [
        {
          "indexed": false,
          "internalType": "uint8",
          "name": "winningNumber",
          "type": "uint8"
        },
        {
          "indexed": false,
          "internalType": "uint256",
          "name": "winnerCount",
          "type": "uint256"
        }
      ],
      "name": "LotteryDrawn",
      "type": "event"
    },
    {
      "anonymous": false,
      "inputs": [
        {
          "indexed": false,
          "internalType": "uint256",
          "name": "prizePerWinner",
          "type": "uint256"
        }
      ],
      "name": "PrizesDistributed",
      "type": "event"
    },
    {
      "anonymous": false,
      "inputs": [
        {
          "indexed": false,
          "internalType": "address",
          "name": "buyer",
          "type": "address"
        },
        {
          "indexed": false,
          "internalType": "uint8",
          "name": "number",
          "type": "uint8"
        }
      ],
      "name": "TicketPurchased",
      "type": "event"
    },
    {
      "inputs": [
        {
          "internalType": "bytes32",
          "name": "interfaceHash",
          "type": "bytes32"
        },
        {
          "internalType": "address",
          "name": "account",
          "type": "address"
        }
      ],
      "name": "canImplementInterfaceForAddress",
      "outputs": [
        {
          "internalType": "bytes32",
          "name": "",
          "type": "bytes32"
        }
      ],
      "stateMutability": "view",
      "type": "function"
    },
    {
      "inputs": [],
      "name": "isDrawn",
      "outputs": [
        {
          "internalType": "bool",
          "name": "",
          "type": "bool"
        }
      ],
      "stateMutability": "view",
      "type": "function"
    },
    {
      "inputs": [
        {
          "internalType": "address",
          "name": "",
          "type": "address"
        }
      ],
      "name": "lastPurchaseTime",
      "outputs": [
        {
          "internalType": "uint256",
          "name": "",
          "type": "uint256"
        }
      ],
      "stateMutability": "view",
      "type": "function"
    },
    {
      "inputs": [
        {
          "internalType": "uint256",
          "name": "",
          "type": "uint256"
        }
      ],
      "name": "tickets",
      "outputs": [
        {
          "internalType": "address",
          "name": "buyer",
          "type": "address"
        },
        {
          "internalType": "uint8",
          "name": "number",
          "type": "uint8"
        },
        {
          "internalType": "uint256",
          "name": "timestamp",
          "type": "uint256"
        }
      ],
      "stateMutability": "view",
      "type": "function"
    },
    {
      "inputs": [],
      "name": "token",
      "outputs": [
        {
          "internalType": "contract CustomERC777",
          "name": "",
          "type": "address"
        }
      ],
      "stateMutability": "view",
      "type": "function"
    },
    {
      "inputs": [
        {
          "internalType": "address",
          "name": "operator",
          "type": "address"
        },
        {
          "internalType": "address",
          "name": "from",
          "type": "address"
        },
        {
          "internalType": "address",
          "name": "to",
          "type": "address"
        },
        {
          "internalType": "uint256",
          "name": "amount",
          "type": "uint256"
        },
        {
          "internalType": "bytes",
          "name": "userData",
          "type": "bytes"
        },
        {
          "internalType": "bytes",
          "name": "operatorData",
          "type": "bytes"
        }
      ],
      "name": "tokensReceived",
      "outputs": [],
      "stateMutability": "nonpayable",
      "type": "function"
    },
    {
      "inputs": [],
      "name": "winnerCount",
      "outputs": [
        {
          "internalType": "uint256",
          "name": "",
          "type": "uint256"
        }
      ],
      "stateMutability": "view",
      "type": "function"
    },
    {
      "inputs": [],
      "name": "winningNumber",
      "outputs": [
        {
          "internalType": "uint8",
          "name": "",
          "type": "uint8"
        }
      ],
      "stateMutability": "view",
      "type": "function"
    }
  ],
  "bytecode": "0x608060405234801561001057600080fd5b50604051610c20380380610c2083398101604081905261002f916100e1565b600180546001600160a01b0319166001600160a01b0383161790556040516329965a1d60e01b815230600482018190527fb281fc8c12954d22544db45de3159a39272895b169a852b314f9cc762e44c53b6024830152604482015273a38bbad0a6ad97420f85b7ad0e4b5306ba4f4f19906329965a1d90606401600060405180830381600087803b1580156100c357600080fd5b505af11580156100d7573d6000803e3d6000fd5b5050505050610111565b6000602082840312156100f357600080fd5b81516001600160a01b038116811461010a57600080fd5b9392505050565b610b00806101206000396000f3fe608060405234801561001057600080fd5b50600436106100875760003560e01c80634664611e1161005b5780634664611e1461010457806350b4471214610123578063caa02e081461015d578063fc0c546a1461016657600080fd5b806223de291461008c578063227a14c1146100a1578063249cb3fa146100d45780633c2bcadc146100e7575b600080fd5b61009f61009a3660046108fd565b610191565b005b6100c16100af3660046109a8565b60066020526000908152604090205481565b6040519081526020015b60405180910390f35b6100c16100e23660046109c3565b6107ad565b6005546100f49060ff1681565b60405190151581526020016100cb565b6003546101119060ff1681565b60405160ff90911681526020016100cb565b6101366101313660046109ef565b610807565b604080516001600160a01b03909416845260ff9092166020840152908201526060016100cb565b6100c160045481565b600154610179906001600160a01b031681565b6040516001600160a01b0390911681526020016100cb565b6001600160a01b03861630146101ee5760405162461bcd60e51b815260206004820152601e60248201527f4c6f74746572794552433737373a2077726f6e6720726563697069656e74000060448201526064015b60405180910390fd5b6001546001600160a01b031633146102485760405162461bcd60e51b815260206004820152601c60248201527f4c6f74746572794552433737373a20696e76616c696420746f6b656e0000000060448201526064016101e5565b69021e19e0c9bab2400000851015801561026b575069021e27c1806e59a4000085105b156104645760006064610285662386f26fc1000088610a34565b61028f9190610a48565b905060648160ff16106102dc5760405162461bcd60e51b815260206004820152601560248201527424b73b30b634b2103a34b1b5b2ba10373ab6b132b960591b60448201526064016101e5565b6001600160a01b0388166000908152600660205260409020546103029062015180610a5c565b4210156103515760405162461bcd60e51b815260206004820152601960248201527f43616e206f6e6c7920627579206f6e636520706572203234680000000000000060448201526064016101e5565b604080516060810182526001600160a01b03808b1680835260ff808616602080860191825242868801818152600280546001810182556000828152995191027f405787fa12a823e0f2b7631cc41b3ba8828b3321ca811111fa75cd3aa3bb5ace810180549651909716600160a01b026001600160a81b031990961691909816179390931790935590517f405787fa12a823e0f2b7631cc41b3ba8828b3321ca811111fa75cd3aa3bb5acf9094019390935590835260069091529082902055517f544a428276e01bd3774fe90de75fee1b2b8bd04d8e999814d59efaa3b70318e790610456908a9084906001600160a01b0392909216825260ff16602082015260400190565b60405180910390a1506107a3565b846a0422ca8b0a00a425000000148015610481575060055460ff16155b156107a3576002546104cc5760405162461bcd60e51b8152602060048201526014602482015273139bc81d1a58dad95d1cc81c1d5c98da185cd95960621b60448201526064016101e5565b60646104d9600143610a6f565b6104e4919040610a48565b6003805460ff191660ff92909216919091179055600060048190555b60025481101561056f576003546002805460ff909216918390811061052757610527610a82565b6000918252602090912060029091020154600160a01b900460ff160361055d576004805490600061055783610a98565b91905055505b8061056781610a98565b915050610500565b506005805460ff191660011790556003546004546040805160ff909316835260208301919091527f8a52dc14e03ab7c81066f0271e6e750aa12ff2aa48197cfa1cf767f62bf57359910160405180910390a160045415610787576001546040516370a0823160e01b81523060048201526000916001600160a01b0316906370a0823190602401602060405180830381865afa158015610612573d6000803e3d6000fd5b505050506040513d601f19601f820116820180604052508101906106369190610ab1565b90506000600454826106489190610a34565b905060005b600254811015610750576003546002805460ff909216918390811061067457610674610a82565b6000918252602090912060029091020154600160a01b900460ff160361073e57600154600280546001600160a01b0390921691639bd9bbc69190849081106106be576106be610a82565b6000918252602082206002909102015460405160e084901b6001600160e01b03191681526001600160a01b03909116600482015260248101869052606060448201526064810191909152608401600060405180830381600087803b15801561072557600080fd5b505af1158015610739573d6000803e3d6000fd5b505050505b8061074881610a98565b91505061064d565b506040518181527f1f6a9506f49a93ca6d08c834015a96a2052b754a161dcf513798ff962154663c9060200160405180910390a150505b6107936002600061084a565b60006004556005805460ff191690555b5050505050505050565b6000828152602081815260408083206001600160a01b038516845290915281205460ff166107dc5760006107fe565b7fa2ef4600d742022d532d4747cb3547474667d6f13804902513b2ec01c848f4b45b90505b92915050565b6002818154811061081757600080fd5b6000918252602090912060029091020180546001909101546001600160a01b0382169250600160a01b90910460ff169083565b508054600082556002029060005260206000209081019061086b919061086e565b50565b5b808211156108945780546001600160a81b03191681556000600182015560020161086f565b5090565b80356001600160a01b03811681146108af57600080fd5b919050565b60008083601f8401126108c657600080fd5b50813567ffffffffffffffff8111156108de57600080fd5b6020830191508360208285010111156108f657600080fd5b9250929050565b60008060008060008060008060c0898b03121561091957600080fd5b61092289610898565b975061093060208a01610898565b965061093e60408a01610898565b955060608901359450608089013567ffffffffffffffff8082111561096257600080fd5b61096e8c838d016108b4565b909650945060a08b013591508082111561098757600080fd5b506109948b828c016108b4565b999c989b5096995094979396929594505050565b6000602082840312156109ba57600080fd5b6107fe82610898565b600080604083850312156109d657600080fd5b823591506109e660208401610898565b90509250929050565b600060208284031215610a0157600080fd5b5035919050565b634e487b7160e01b600052601260045260246000fd5b634e487b7160e01b600052601160045260246000fd5b600082610a4357610a43610a08565b500490565b600082610a5757610a57610a08565b500690565b8082018082111561080157610801610a1e565b8181038181111561080157610801610a1e565b634e487b7160e01b600052603260045260246000fd5b600060018201610aaa57610aaa610a1e565b5060010190565b600060208284031215610ac357600080fd5b505191905056fea2646970667358221220185c787b21ce5ec6dcf0452b534a4fa14acd63786fd11f64757c758d906b50c964736f6c63430008130033",
  "linkReferences": {},
  "deployedLinkReferences": {}
}